:100000000C942A000C943F000C943F000C943F0089
:100010000C943F000C943F000C943F000C943F0064
:100020000C943F000C943F000C943F000C943F0054
:100030000C943F000C943F000C943F000C943F0044
:100040000C943F000C943F000C943F000C943F0034
:100050000C943F0011241FBECFE5D8E0DEBFCDBF1A
:1000600010E0A0E6B0E0EAE4F2E202C005900D92F2
:10007000A039B107D9F70E940A110C9423110C94EE
:100080000000DF93CF930F92CDB7DEB781E0898375
:10009000EAE3F0E08FEF8083E7E3F0E08FEF808327
:1000A000E4E3F0E08FEF8083E1E3F0E08FEF808323
:1000B000EBE3F0E01082E8E3F0E01082E5E3F0E04B
:1000C0001082E2E3F0E01082198289810F90CF91D3
:1000D000DF910895DF93CF9300D000D00F92CDB77A
:1000E000DEB78A836B8381E089838A818430A0F5BF
:1000F0008A81282F30E03D832C838C819D81813043
:100100009105D1F02C813D81223031052CF48C8178
:100110009D81009761F01EC02C813D812230310508
:1001200081F08C819D818330910581F013C0EAE3D9
:10013000F0E08B8180830EC0E7E3F0E08B81808369
:1001400009C0E4E3F0E08B81808304C0E1E3F0E0E8
:100150008B818083198202C083E0898389810F901B
:100160000F900F900F900F90CF91DF910895DF9334
:10017000CF9300D000D00F92CDB7DEB78A836B83C8
:1001800081E089838A818430A0F58A81282F30E03C
:100190003D832C838C819D8181309105D1F02C8110
:1001A0003D81223031052CF48C819D81009761F0D6
:1001B0001EC02C813D812230310581F08C819D81D2
:1001C0008330910581F013C0EBE3F0E08B818083F5
:1001D0000EC0E8E3F0E08B81808309C0E5E3F0E046
:1001E0008B81808304C0E2E3F0E08B8180831982FD
:1001F00002C083E0898389810F900F900F900F9048
:100200000F90CF91DF910895DF93CF9300D000D06E
:10021000CDB7DEB78A8381E089838A81843008F094
:1002200040C08A81282F30E03C832B838B819C81C6
:1002300081309105E9F02B813C81223031052CF48D
:100240008B819C81009761F02AC02B813C812230F8
:100250003105B1F08B819C8183309105C9F01FC0BD
:10026000ABE3B0E0EBE3F0E0808180958C9317C0C6
:10027000A8E3B0E0E8E3F0E0808180958C930FC0C4
:10028000A5E3B0E0E5E3F0E0808180958C9307C0C2
:10029000A2E3B0E0E2E3F0E0808180958C931982E4
:1002A00002C083E0898389810F900F900F900F9097
:1002B000CF91DF910895DF93CF9300D000D000D08D
:1002C000CDB7DEB78A837C836B8381E089838B81A2
:1002D0009C81009709F442C08A818430E0F58A81CC
:1002E000282F30E03E832D838D819E8181309105C2
:1002F000E1F02D813E81223031052CF48D819E81EB
:10030000009761F026C02D813E8122303105A1F099
:100310008D819E8183309105B1F01BC0EBE3F0E04D
:100320008081EB81FC81808314C0E8E3F0E0808170
:10033000EB81FC8180830DC0E5E3F0E08081EB81FF
:10034000FC81808306C0E2E3F0E08081EB81FC81E8
:100350008083198205C083E0898302C082E089839B
:10036000898126960FB6F894DEBF0FBECDBFCF9120
:10037000DF910895DF93CF9300D000D000D0CDB7A8
:10038000DEB78A836B834C8381E089838A818430E2
:1003900008F0D0C08B81883008F0CCC08C818230CE
:1003A00008F0C8C08A81282F30E03E832D836D81FC
:1003B0007E816130710509F441C08D819E8182305A
:1003C000910534F42D813E812115310571F0B0C0C5
:1003D0006D817E816230710509F459C08D819E81E5
:1003E0008330910509F47CC0A3C0AAE3B0E0EAE33E
:1003F000F0E08081482F8B81282F30E081E090E071
:1004000002C0880F991F2A95E2F7809584238C9368
:10041000AAE3B0E0EAE3F0E08081482F8C81282F46
:1004200030E08B81882F90E0B90102C0660F771F02
:100430008A95E2F7CB01842B8C937AC0A7E3B0E0D6
:10044000E7E3F0E08081482F8B81282F30E081E0C6
:1004500090E002C0880F991F2A95E2F780958423C7
:100460008C93A7E3B0E0E7E3F0E08081482F8C8134
:10047000282F30E08B81882F90E0B90102C0660FF1
:10048000771F8A95E2F7CB01842B8C9351C0A4E3AC
:10049000B0E0E4E3F0E08081482F8B81282F30E04A
:1004A00081E090E002C0880F991F2A95E2F78095BD
:1004B00084238C93A4E3B0E0E4E3F0E08081482F50
:1004C0008C81282F30E08B81882F90E0B90102C009
:1004D000660F771F8A95E2F7CB01842B8C9328C097
:1004E000A1E3B0E0E1E3F0E08081482F8B81282F89
:1004F00030E081E090E002C0880F991F2A95E2F772
:10050000809584238C93A1E3B0E0E1E3F0E0808167
:10051000482F8C81282F30E08B81882F90E0B90103
:1005200002C0660F771F8A95E2F7CB01842B8C936C
:10053000198202C083E08983898126960FB6F894D8
:10054000DEBF0FBECDBFCF91DF910895DF93CF9374
:1005500000D000D000D0CDB7DEB78A836B834C8348
:1005600081E089838A81843008F0D0C08B81883013
:1005700008F0CCC08C81823008F0C8C08A81282F56
:1005800030E03E832D836D817E816130710509F4F9
:1005900041C08D819E818230910534F42D813E8150
:1005A0002115310571F0B0C06D817E816230710519
:1005B00009F459C08D819E818330910509F47CC076
:1005C000A3C0ABE3B0E0EBE3F0E08081482F8B8188
:1005D000282F30E081E090E002C0880F991F2A9513
:1005E000E2F7809584238C93ABE3B0E0EBE3F0E09B
:1005F0008081482F8C81282F30E08B81882F90E0DC
:10060000B90102C0660F771F8A95E2F7CB01842BF0
:100610008C937AC0A8E3B0E0E8E3F0E08081482F53
:100620008B81282F30E081E090E002C0880F991F75
:100630002A95E2F7809584238C93A8E3B0E0E8E361
:10064000F0E08081482F8C81282F30E08B81882F2B
:1006500090E0B90102C0660F771F8A95E2F7CB01DF
:10066000842B8C9351C0A5E3B0E0E5E3F0E08081FA
:10067000482F8B81282F30E081E090E002C0880F66
:10068000991F2A95E2F7809584238C93A5E3B0E027
:10069000E5E3F0E08081482F8C81282F30E08B81CA
:1006A000882F90E0B90102C0660F771F8A95E2F7A4
:1006B000CB01842B8C9328C0A2E3B0E0E2E3F0E00E
:1006C0008081482F8B81282F30E081E090E002C0AC
:1006D000880F991F2A95E2F7809584238C93A2E3D3
:1006E000B0E0E2E3F0E08081482F8C81282F30E0F9
:1006F0008B81882F90E0B90102C0660F771F8A9521
:10070000E2F7CB01842B8C93198202C083E08983AA
:10071000898126960FB6F894DEBF0FBECDBFCF916C
:10072000DF910895DF93CF9300D000D00F92CDB723
:10073000DEB78A836B8381E089838A81843008F005
:1007400074C08B81883008F070C08A81282F30E017
:100750003D832C838C819D818130910549F12C81D1
:100760003D81223031052CF48C819D81009761F010
:100770005AC02C813D812230310571F18C819D81DF
:1007800083309105E9F14FC0ABE3B0E0EBE3F0E07B
:100790008081482F8B81282F30E081E090E0022E6D
:1007A00002C0880F991F0A94E2F784278C933BC0FC
:1007B000A8E3B0E0E8E3F0E08081482F8B81282FA8
:1007C00030E081E090E0022E02C0880F991F0A9469
:1007D000E2F784278C9327C0A5E3B0E0E5E3F0E0DF
:1007E0008081482F8B81282F30E081E090E0022E1D
:1007F00002C0880F991F0A94E2F784278C9313C0D4
:10080000A2E3B0E0E2E3F0E08081482F8B81282F63
:1008100030E081E090E0022E02C0880F991F0A9418
:10082000E2F784278C93198202C083E0898389814F
:100830000F900F900F900F900F90CF91DF91089530
:10084000DF93CF93CDB7DEB727970FB6F894DEBF0F
:100850000FBECDBF8A836B835D834C8381E0898328
:100860008C819D81009709F47DC08A81843008F0D5
:1008700076C08B81883008F072C08A81282F30E0E2
:100880003F832E834E815F814130510559F18E8126
:100890009F818230910534F42E813F8121153105ED
:1008A00069F05BC04E815F814230510579F18E81E4
:1008B0009F818330910509F43DC04FC0E9E3F0E02A
:1008C0008081282F30E08B81882F90E0A90102C021
:1008D000559547958A95E2F7CA018170EC81FD81B3
:1008E00080833BC0E6E3F0E08081282F30E08B81FD
:1008F000882F90E0A90102C0559547958A95E2F7A7
:10090000CA018170EC81FD81808327C0E3E3F0E0C0
:100910008081282F30E08B81882F90E0A90102C0D0
:10092000559547958A95E2F7CA018170EC81FD8162
:10093000808313C0E0E3F0E08081282F30E08B81DA
:10094000882F90E0A90102C0559547958A95E2F756
:10095000CA018170EC81FD818083198205C083E02A
:10096000898302C082E08983898127960FB6F89433
:10097000DEBF0FBECDBFCF91DF910895DF93CF9340
:1009800000D000D0CDB7DEB79C838B8381E08A8313
:100990008B819C81009709F451C219824AC28981D6
:1009A000482F50E0CA01880F991F9C01220F331F66
:1009B000220F331F220F331F820F931F9C01240F1E
:1009C000351F8B819C81FC01E20FF31F60818981BF
:1009D000482F50E0CA01880F991F9C01220F331F36
:1009E000220F331F220F331F820F931F9C01240FEE
:1009F000351F8B819C81FC01E20FF31F9181862FB3
:100A0000692F41E00E94BA018981482F50E0CA0154
:100A1000880F991F9C01220F331F220F331F220FB3
:100A2000331F820F931F9C01240F351F8B819C81E4
:100A3000FC01E20FF31F62818981482F50E0CA0157
:100A4000880F991F9C01220F331F220F331F220F83
:100A5000331F820F931F9C01240F351F8B819C81B4
:100A6000FC01E20FF31F9381862F692F41E00E9462
:100A7000BA018981482F50E0CA01880F991F9C0153
:100A8000220F331F220F331F220F331F820F931F9A
:100A90009C01240F351F8B819C81FC01E20FF31F09
:100AA00064818981482F50E0CA01880F991F9C01F9
:100AB000220F331F220F331F220F331F820F931F6A
:100AC0009C01240F351F8B819C81FC01E20FF31FD9
:100AD0009581862F692F41E00E94BA018981482FB4
:100AE00050E0CA01880F991F9C01220F331F220F6B
:100AF000331F220F331F820F931F9C01240F351FBA
:100B00008B819C81FC01E20FF31F66818981482F54
:100B100050E0CA01880F991F9C01220F331F220F3A
:100B2000331F220F331F820F931F9C01240F351F89
:100B30008B819C81FC01E20FF31F9781862F692F27
:100B400041E00E94BA018981482F50E0CA01880F14
:100B5000991F9C01220F331F220F331F220F331FB7
:100B6000820F931F9C01240F351F8B819C81FC01F8
:100B7000E20FF31F60858981482F50E0CA01880F7A
:100B8000991F9C01220F331F220F331F220F331F87
:100B9000820F931F9C01240F351F8B819C81FC01C8
:100BA000E20FF31F9185862F692F41E00E94BA0161
:100BB0008981482F50E0CA01880F991F9C01220F9C
:100BC000331F220F331F220F331F820F931F9C01ED
:100BD000240F351F8B819C81FC01E20FF31F62857E
:100BE0008981482F50E0CA01880F991F9C01220F6C
:100BF000331F220F331F220F331F820F931F9C01BD
:100C0000240F351F8B819C81FC01E20FF31F93851C
:100C1000862F692F41E00E94BA018981482F50E058
:100C2000CA01880F991F9C01220F331F220F331F07
:100C3000220F331F820F931F9C01240F351F8B81BE
:100C40009C81FC01E20FF31F64858981482F50E0ED
:100C5000CA01880F991F9C01220F331F220F331FD7
:100C6000220F331F820F931F9C01240F351F8B818E
:100C70009C81FC01E20FF31F9585862F692F41E0CF
:100C80000E94BA018981482F50E0CA01880F991F3C
:100C90009C01220F331F220F331F220F331F820F9D
:100CA000931F9C01240F351F8B819C81FC01E20F57
:100CB000F31F8685882309F44FC08981482F50E0AF
:100CC000CA01880F991F9C01220F331F220F331F67
:100CD000220F331F820F931F9C01240F351F8B811E
:100CE0009C81FC01E20FF31F87858823A9F189818C
:100CF000482F50E0CA01880F991F9C01220F331F13
:100D0000220F331F220F331F820F931F9C01240FCA
:100D1000351F8B819C81FC01E20FF31F6685898161
:100D2000482F50E0CA01880F991F9C01220F331FE2
:100D3000220F331F220F331F820F931F9C01240F9A
:100D4000351F8B819C81FC01E20FF31F9785862F55
:100D5000692F41E00E94BA018981482F50E0CA0101
:100D6000880F991F9C01220F331F220F331F220F60
:100D7000331F820F931F9C01240F351F8B819C8191
:100D8000FC01E20FF31F8089882309F44FC0898199
:100D9000482F50E0CA01880F991F9C01220F331F72
:100DA000220F331F220F331F820F931F9C01240F2A
:100DB000351F8B819C81FC01E20FF31F8189882301
:100DC000A9F18981482F50E0CA01880F991F9C0121
:100DD000220F331F220F331F220F331F820F931F47
:100DE0009C01240F351F8B819C81FC01E20FF31FB6
:100DF00060898981482F50E0CA01880F991F9C01A2
:100E0000220F331F220F331F220F331F820F931F16
:100E10009C01240F351F8B819C81FC01E20FF31F85
:100E20009189862F692F41E00E94BA0189818F5FE5
:100E300089838981823008F4B2CD02C082E08A833E
:100E40008A810F900F900F900F90CF91DF910895AE
:100E5000DF93CF93CDB7DEB768970FB6F894DEBFB8
:100E60000FBECDBF8A836B8381E089838A818A30FC
:100E700008F0A4C38B81833008F0A0C38B81482F76
:100E800050E0CA01880F991F9C01220F331F220FC7
:100E9000331F220F331F820F931F840F951FFC01F6
:100EA000EE58FF4F8081813009F098C18B81482F27
:100EB00050E0CA01880F991F9C01220F331F220F97
:100EC000331F220F331F820F931F840F951FFC01C6
:100ED000E05AFF4F60818B81482F50E0CA01880F94
:100EE000991F9C01220F331F220F331F220F331F24
:100EF000820F931F840F951FFC01EF59FF4F208134
:100F00008A81882F90E0FC01EA57FF4F8081982F5B
:100F10009170862F622F492F0E94A6028B81482F45
:100F200050E0CA01880F991F9C01220F331F220F26
:100F3000331F220F331F820F931F840F951FFC0155
:100F4000EE59FF4F60818B81482F50E0CA01880F16
:100F5000991F9C01220F331F220F331F220F331FB3
:100F6000820F931F840F951FFC01ED59FF4F2081C5
:100F70008A81882F90E0FC01EA57FF4F8081869597
:100F8000982F9170862F622F492F0E94A6028B8185
:100F9000482F50E0CA01880F991F9C01220F331F70
:100FA000220F331F220F331F820F931F840F951FB1
:100FB000FC01EC59FF4F60818B81482F50E0CA0142
:100FC000880F991F9C01220F331F220F331F220FFE
:100FD000331F820F931F840F951FFC01EB59FF4FA6
:100FE00020818A81882F90E0FC01EA57FF4F8081A1
:100FF00086958695982F9170862F622F492F0E9493
:10100000A6028B81482F50E0CA01880F991F9C01CE
:10101000220F331F220F331F220F331F820F931F04
:10102000840F951FFC01EA59FF4F60818B81482F87
:1010300050E0CA01880F991F9C01220F331F220F15
:10104000331F220F331F820F931F840F951FFC0144
:10105000E959FF4F20818A81882F90E0FC01EA57EF
:10106000FF4F8081869586958695982F9170862F63
:10107000622F492F0E94A6028B81482F50E0CA019F
:10108000880F991F9C01220F331F220F331F220F3D
:10109000331F820F931F840F951FFC01E859FF4FE8
:1010A00060818B81482F50E0CA01880F991F9C01F5
:1010B000220F331F220F331F220F331F820F931F64
:1010C000840F951FFC01E759FF4F20818A81882FEB
:1010D00090E0FC01EA57FF4F808182958F70982F36
:1010E0009170862F622F492F0E94A6028B81482F74
:1010F00050E0CA01880F991F9C01220F331F220F55
:10110000331F220F331F820F931F840F951FFC0183
:10111000E659FF4F60818B81482F50E0CA01880F4C
:10112000991F9C01220F331F220F331F220F331FE1
:10113000820F931F840F951FFC01E559FF4F2081FB
:101140008A81882F90E0FC01EA57FF4F80818295C9
:1011500086958770982F9170862F622F492F0E9455
:10116000A6028B81482F50E0CA01880F991F9C016D
:10117000220F331F220F331F220F331F820F931FA3
:10118000840F951FFC01E459FF4F60818B81482F2C
:1011900050E0CA01880F991F9C01220F331F220FB4
:1011A000331F220F331F820F931F840F951FFC01E3
:1011B000E359FF4F20818A81882F90E0FC01EA5794
:1011C000FF4F80818295869586958370982F9170C8
:1011D000862F622F492F0E94A602EEC18B81482FD5
:1011E00050E0CA01880F991F9C01220F331F220F64
:1011F000331F220F331F820F931F840F951FFC0193
:10120000EE58FF4F8081882309F0D6C18B81482F8B
:1012100050E0CA01880F991F9C01220F331F220F33
:10122000331F220F331F820F931F840F951FFC0162
:10123000E05AFF4F8081888F8B81482F50E0CA0190
:10124000880F991F9C01220F331F220F331F220F7B
:10125000331F820F931F840F951FFC01EF59FF4F1F
:1012600080818F8B8A81882F90E0FC01EA57FF4FA5
:101270008081882F90E0817090701E8A009711F411
:1012800081E08E8B888D6F894E890E94A6028B81AA
:10129000482F50E0CA01880F991F9C01220F331F6D
:1012A000220F331F220F331F820F931F840F951FAE
:1012B000FC01EE59FF4F80818D8B8B81482F50E0D0
:1012C000CA01880F991F9C01220F331F220F331F61
:1012D000220F331F820F931F840F951FFC01ED59BE
:1012E000FF4F80818C8B8A81882F90E0FC01EA5728
:1012F000FF4F80818695882F90E0817090701B8AC7
:10130000009711F481E08B8B8D896C894B890E9449
:10131000A6028B81482F50E0CA01880F991F9C01BB
:10132000220F331F220F331F220F331F820F931FF1
:10133000840F951FFC01EC59FF4F80818A8B8B81B4
:10134000482F50E0CA01880F991F9C01220F331FBC
:10135000220F331F220F331F820F931F840F951FFD
:10136000FC01EB59FF4F8081898B8A81882F90E0A7
:10137000FC01EA57FF4F808186958695882F90E083
:1013800081709070188A009711F481E0888B8A89A7
:10139000698948890E94A6028B81482F50E0CA01C2
:1013A000880F991F9C01220F331F220F331F220F1A
:1013B000331F820F931F840F951FFC01EA59FF4FC3
:1013C00080818F878B81482F50E0CA01880F991F39
:1013D0009C01220F331F220F331F220F331F820F56
:1013E000931F840F951FFC01E959FF4F80818E8761
:1013F0008A81882F90E0FC01EA57FF4F8081869513
:1014000086958695882F90E0817090701D86009754
:1014100011F481E08D878F856E854D850E94A6022F
:101420008B81482F50E0CA01880F991F9C01220F21
:10143000331F220F331F220F331F820F931F840F7E
:10144000951FFC01E859FF4F80818C878B81482FC5
:1014500050E0CA01880F991F9C01220F331F220FF1
:10146000331F220F331F820F931F840F951FFC0120
:10147000E759FF4F80818B878A81882F90E0FC019C
:10148000EA57FF4F808182958F70882F90E081709E
:1014900090701A86009711F481E08A878C856B859D
:1014A0004A850E94A6028B81482F50E0CA01880F0E
:1014B000991F9C01220F331F220F331F220F331F4E
:1014C000820F931F840F951FFC01E659FF4F808107
:1014D00089878B81482F50E0CA01880F991F9C0192
:1014E000220F331F220F331F220F331F820F931F30
:1014F000840F951FFC01E559FF4F808188878A8101
:10150000882F90E0FC01EA57FF4F808182958695F5
:101510008770882F90E0817090701F82009711F47F
:1015200081E08F83898568854F810E94A6028B8127
:10153000482F50E0CA01880F991F9C01220F331FCA
:10154000220F331F220F331F820F931F840F951F0B
:10155000FC01E459FF4F80818E838B81482F50E03E
:10156000CA01880F991F9C01220F331F220F331FBE
:10157000220F331F820F931F840F951FFC01E35925
:10158000FF4F80818D838A81882F90E0FC01EA578C
:10159000FF4F80818295869586958370882F90E095
:1015A000817090701C82009711F481E08C838E8191
:1015B0006D814C810E94A602198202C083E089835A
:1015C000898168960FB6F894DEBF0FBECDBFCF916C
:1015D000DF910895DF93CF9300D0CDB7DEB78A8334
:1015E00081E089838A81833008F0BEC08A81482FD8
:1015F00050E0CA01880F991F9C01220F331F220F50
:10160000331F220F331F820F931F840F951FFC017E
:10161000E259FF4F8081882309F4A8C08A81482FAE
:1016200050E0CA01880F991F9C01220F331F220F1F
:10163000331F220F331F820F931F840F951FFC014E
:10164000E159FF4F8081882309F490C08A81482F97
:1016500050E0CA01880F991F9C01220F331F220FEF
:10166000331F220F331F820F931F840F951FFC011E
:10167000EE58FF4F8081813081F58A81482F50E0FC
:10168000CA01880F991F9C01220F331F220F331F9D
:10169000220F331F820F931F840F951FFC01E25905
:1016A000FF4F60818A81482F50E0CA01880F991F3F
:1016B0009C01220F331F220F331F220F331F820F73
:1016C000931F840F951FFC01E159FF4F9081862FD6
:1016D000692F40E00E94A60249C08A81482F50E04D
:1016E000CA01880F991F9C01220F331F220F331F3D
:1016F000220F331F820F931F840F951FFC01EE589A
:10170000FF4F8081882391F58A81482F50E0CA01DC
:10171000880F991F9C01220F331F220F331F220FA6
:10172000331F820F931F840F951FFC01E259FF4F57
:1017300060818A81482F50E0CA01880F991F9C015F
:10174000220F331F220F331F220F331F820F931FCD
:10175000840F951FFC01E159FF4F9081862F692F5F
:1017600041E00E94A60202C083E0898389810F9034
:101770000F90CF91DF910895DF93CF9300D0CDB735
:10178000DEB78A8381E089838A81833008F0BEC016
:101790008A81482F50E0CA01880F991F9C01220FAF
:1017A000331F220F331F220F331F820F931F840F0B
:1017B000951FFC01E259FF4F8081882309F4A8C0DE
:1017C0008A81482F50E0CA01880F991F9C01220F7F
:1017D000331F220F331F220F331F820F931F840FDB
:1017E000951FFC01E159FF4F8081882309F490C0C7
:1017F0008A81482F50E0CA01880F991F9C01220F4F
:10180000331F220F331F220F331F820F931F840FAA
:10181000951FFC01EE58FF4F8081813081F58A8150
:10182000482F50E0CA01880F991F9C01220F331FD7
:10183000220F331F220F331F820F931F840F951F18
:10184000FC01E259FF4F60818A81482F50E0CA01B4
:10185000880F991F9C01220F331F220F331F220F65
:10186000331F820F931F840F951FFC01E159FF4F17
:101870009081862F692F41E00E94A60249C08A818B
:10188000482F50E0CA01880F991F9C01220F331F77
:10189000220F331F220F331F820F931F840F951FB8
:1018A000FC01EE58FF4F8081882391F58A81482FF3
:1018B00050E0CA01880F991F9C01220F331F220F8D
:1018C000331F220F331F820F931F840F951FFC01BC
:1018D000E259FF4F60818A81482F50E0CA01880F8A
:1018E000991F9C01220F331F220F331F220F331F1A
:1018F000820F931F840F951FFC01E159FF4F9081C8
:10190000862F692F40E00E94A60202C083E08983EF
:1019100089810F900F90CF91DF910895DF93CF933E
:1019200000D0CDB7DEB78A8381E089838A81833096
:1019300008F0BEC08A81482F50E0CA01880F991F65
:101940009C01220F331F220F331F220F331F820FE0
:10195000931F840F951FFC01E059FF4F808188235E
:1019600009F4A8C08A81482F50E0CA01880F991F46
:101970009C01220F331F220F331F220F331F820FB0
:10198000931F840F951FFC01EF58FF4F8081882320
:1019900009F490C08A81482F50E0CA01880F991F2E
:1019A0009C01220F331F220F331F220F331F820F80
:1019B000931F840F951FFC01EE58FF4F80818130EB
:1019C00081F58A81482F50E0CA01880F991F9C0138
:1019D000220F331F220F331F220F331F820F931F3B
:1019E000840F951FFC01E059FF4F60818A81482FC9
:1019F00050E0CA01880F991F9C01220F331F220F4C
:101A0000331F220F331F820F931F840F951FFC017A
:101A1000EF58FF4F9081862F692F41E00E94A60268
:101A200049C08A81482F50E0CA01880F991F9C0144
:101A3000220F331F220F331F220F331F820F931FDA
:101A4000840F951FFC01EE58FF4F8081882391F58C
:101A50008A81482F50E0CA01880F991F9C01220FEC
:101A6000331F220F331F220F331F820F931F840F48
:101A7000951FFC01E059FF4F60818A81482F50E09B
:101A8000CA01880F991F9C01220F331F220F331F99
:101A9000220F331F820F931F840F951FFC01EF58F5
:101AA000FF4F9081862F692F40E00E94A60202C05E
:101AB00083E0898389810F900F90CF91DF91089502
:101AC000DF93CF9300D0CDB7DEB78A8381E08983DF
:101AD0008A81833008F0BEC08A81482F50E0CA0155
:101AE000880F991F9C01220F331F220F331F220FD3
:101AF000331F820F931F840F951FFC01E059FF4F86
:101B00008081882309F4A8C08A81482F50E0CA0147
:101B1000880F991F9C01220F331F220F331F220FA2
:101B2000331F820F931F840F951FFC01EF58FF4F47
:101B30008081882309F490C08A81482F50E0CA012F
:101B4000880F991F9C01220F331F220F331F220F72
:101B5000331F820F931F840F951FFC01EE58FF4F18
:101B60008081813081F58A81482F50E0CA01880F39
:101B7000991F9C01220F331F220F331F220F331F87
:101B8000820F931F840F951FFC01E059FF4F608166
:101B90008A81482F50E0CA01880F991F9C01220FAB
:101BA000331F220F331F220F331F820F931F840F07
:101BB000951FFC01EF58FF4F9081862F692F40E061
:101BC0000E94A60249C08A81482F50E0CA01880FAE
:101BD000991F9C01220F331F220F331F220F331F27
:101BE000820F931F840F951FFC01EE58FF4F8081D9
:101BF000882391F58A81482F50E0CA01880F991FE8
:101C00009C01220F331F220F331F220F331F820F1D
:101C1000931F840F951FFC01E059FF4F60818A815B
:101C2000482F50E0CA01880F991F9C01220F331FD3
:101C3000220F331F220F331F820F931F840F951F14
:101C4000FC01EF58FF4F9081862F692F41E00E94E1
:101C5000A60202C083E0898389810F900F90CF9103
:101C6000DF910895DF93CF9300D0CDB7DEB78A839D
:101C700081E089838A81833008F0C4C28A81482F39
:101C800050E0CA01880F991F9C01220F331F220FB9
:101C9000331F220F331F820F931F840F951FFC01E8
:101CA000EE58FF4F8081813009F04AC18A81482F68
:101CB00050E0CA01880F991F9C01220F331F220F89
:101CC000331F220F331F820F931F840F951FFC01B8
:101CD000E05AFF4F60818A81482F50E0CA01880F87
:101CE000991F9C01220F331F220F331F220F331F16
:101CF000820F931F840F951FFC01EF59FF4F9081B6
:101D0000862F692F41E00E94A6028A81482F50E069
:101D1000CA01880F991F9C01220F331F220F331F06
:101D2000220F331F820F931F840F951FFC01EE5962
:101D3000FF4F60818A81482F50E0CA01880F991FA8
:101D40009C01220F331F220F331F220F331F820FDC
:101D5000931F840F951FFC01ED59FF4F9081862F33
:101D6000692F41E00E94A6028A81482F50E0CA01F3
:101D7000880F991F9C01220F331F220F331F220F40
:101D8000331F820F931F840F951FFC01EC59FF4FE7
:101D900060818A81482F50E0CA01880F991F9C01F9
:101DA000220F331F220F331F220F331F820F931F67
:101DB000840F951FFC01EB59FF4F9081862F692FEF
:101DC00041E00E94A6028A81482F50E0CA01880F94
:101DD000991F9C01220F331F220F331F220F331F25
:101DE000820F931F840F951FFC01EA59FF4F6081FA
:101DF0008A81482F50E0CA01880F991F9C01220F49
:101E0000331F220F331F220F331F820F931F840FA4
:101E1000951FFC01E959FF4F9081862F692F41E002
:101E20000E94A6028A81482F50E0CA01880F991F9C
:101E30009C01220F331F220F331F220F331F820FEB
:101E4000931F840F951FFC01E859FF4F60818A8121
:101E5000482F50E0CA01880F991F9C01220F331FA1
:101E6000220F331F220F331F820F931F840F951FE2
:101E7000FC01E759FF4F9081862F692F41E00E94B6
:101E8000A6028A81482F50E0CA01880F991F9C0141
:101E9000220F331F220F331F220F331F820F931F76
:101EA000840F951FFC01E659FF4F60818A81482FFE
:101EB00050E0CA01880F991F9C01220F331F220F87
:101EC000331F220F331F820F931F840F951FFC01B6
:101ED000E559FF4F9081862F692F41E00E94A602AD
:101EE0008A81482F50E0CA01880F991F9C01220F58
:101EF000331F220F331F220F331F820F931F840FB4
:101F0000951FFC01E459FF4F60818A81482F50E002
:101F1000CA01880F991F9C01220F331F220F331F04
:101F2000220F331F820F931F840F951FFC01E3596B
:101F3000FF4F9081862F692F41E00E94A60264C165
:101F40008A81482F50E0CA01880F991F9C01220FF7
:101F5000331F220F331F220F331F820F931F840F53
:101F6000951FFC01EE58FF4F8081882309F04CC17A
:101F70008A81482F50E0CA01880F991F9C01220FC7
:101F8000331F220F331F220F331F820F931F840F23
:101F9000951FFC01E05AFF4F60818A81482F50E075
:101FA000CA01880F991F9C01220F331F220F331F74
:101FB000220F331F820F931F840F951FFC01EF59CF
:101FC000FF4F9081862F692F40E00E94A6028A81F0
:101FD000482F50E0CA01880F991F9C01220F331F20
:101FE000220F331F220F331F820F931F840F951F61
:101FF000FC01EE59FF4F60818A81482F50E0CA01F1
:10200000880F991F9C01220F331F220F331F220FAD
:10201000331F820F931F840F951FFC01ED59FF4F53
:102020009081862F692F40E00E94A6028A81482F66
:1020300050E0CA01880F991F9C01220F331F220F05
:10204000331F220F331F820F931F840F951FFC0134
:10205000EC59FF4F60818A81482F50E0CA01880FF8
:10206000991F9C01220F331F220F331F220F331F92
:10207000820F931F840F951FFC01EB59FF4F908136
:10208000862F692F40E00E94A6028A81482F50E0E7
:10209000CA01880F991F9C01220F331F220F331F83
:1020A000220F331F820F931F840F951FFC01EA59E3
:1020B000FF4F60818A81482F50E0CA01880F991F25
:1020C0009C01220F331F220F331F220F331F820F59
:1020D000931F840F951FFC01E959FF4F9081862FB4
:1020E000692F40E00E94A6028A81482F50E0CA0171
:1020F000880F991F9C01220F331F220F331F220FBD
:10210000331F820F931F840F951FFC01E859FF4F67
:1021100060818A81482F50E0CA01880F991F9C0175
:10212000220F331F220F331F220F331F820F931FE3
:10213000840F951FFC01E759FF4F9081862F692F6F
:1021400040E00E94A6028A81482F50E0CA01880F11
:10215000991F9C01220F331F220F331F220F331FA1
:10216000820F931F840F951FFC01E659FF4F60817A
:102170008A81482F50E0CA01880F991F9C01220FC5
:10218000331F220F331F220F331F820F931F840F21
:10219000951FFC01E559FF4F9081862F692F40E084
:1021A0000E94A6028A81482F50E0CA01880F991F19
:1021B0009C01220F331F220F331F220F331F820F68
:1021C000931F840F951FFC01E459FF4F60818A81A2
:1021D000482F50E0CA01880F991F9C01220F331F1E
:1021E000220F331F220F331F820F931F840F951F5F
:1021F000FC01E359FF4F9081862F692F40E00E9438
:10220000A60202C083E0898389810F900F90CF914D
:10221000DF910895DF93CF930F92CDB7DEB7198288
:102220000E94410080E690E00E94BE04198207C02F
:10223000898160E00E94280789818F5F8983898175
:0A2240008A30B0F3F3CFF894FFCF1B
:10224A00000000010002000300040005000600006F
:10225A00010000010001010102010301040105015D
:10226A000600000100003F065B4F666D7D077F6F29
:00000001FF
