:100000000C942A000C9434000C9434000C943400AA
:100010000C9434000C9434000C9434000C94340090
:100020000C9434000C9434000C9434000C94340080
:100030000C9434000C9434000C9434000C94340070
:100040000C9434000C9434000C9434000C94340060
:100050000C94340011241FBECFE5D8E0DEBFCDBF25
:100060000E9436000C94AF000C94000050E080E039
:1000700061E070E0A9E1B0E036C08AB39B01052ED3
:1000800002C0220F331F0A94E2F7822B8ABB8BB384
:10009000282B2BBB88EB9BE0FD013197F1F70197F3
:1000A000D9F75F5F4AB3852F90E09B01052E02C010
:1000B000220F331F0A94E2F7422B4ABB4BB3242B87
:1000C0002BBB2AB30197FB0102C0EE0FFF1F8A95DD
:1000D000E2F7CF012E2B2ABB2BB3809582238BBB5B
:1000E000573059F603C0882341F236C08AB39B01CA
:1000F000052E02C0220F331F0A94E2F7822B8ABB1F
:100100008BB3282B2BBB88EB9BE0FD013197F1F7DC
:100110000197D9F751504AB3852F90E09B01052EE6
:1001200002C0220F331F0A94E2F7422B4ABB4BB3A3
:10013000242B2BBB2AB30196FB0102C0EE0FFF1F3D
:100140008A95E2F7CF012E2B2ABB2BB38095822311
:100150008BBB852F511181E0813041F2C4CFF894DF
:02016000FFCFCF
:00000001FF
