:100000000C942A000C9434000C9434000C943400AA
:100010000C9434000C9434000C9434000C94340090
:100020000C9434000C9434000C9434000C94340080
:100030000C9434000C9434000C9434000C94340070
:100040000C9434000C9434000C9434000C94340060
:100050000C94340011241FBECFE5D8E0DEBFCDBF25
:100060000E9436000C949C000C9400000F931F9388
:10007000CF93DF9350E0C1E0D0E009E110E08AB314
:10008000652F70E09E01052E02C0220F331F0A94D7
:10009000E2F7A22F822B8ABB8BB3822B8BBB80E132
:1000A00097E2F8013197F1F70197D9F75F5F4AB30B
:1000B000852F90E09E01052E02C0220F331F0A9467
:1000C000E2F7322F422B4ABB2BB3232B2BBB2AB395
:1000D0000197FE0102C0EE0FFF1F8A95E2F7CF01E4
:1000E0002E2B2ABB2BB3809582238BBB583039F63D
:1000F0008AB3832B8ABB8BB3382B3BBB80E197E25F
:10010000F8013197F1F70197D9F78AB38A2B8ABBA7
:100110008BB3A82BABBB2AB361507040CE0102C099
:10012000880F991F6A95E2F7282B2ABB2BB380957D
:0C01300082238BBB57E0A3CFF894FFCFD5
:00000001FF
